:020000040000FA
:04000000FEEF3FF0E0
:1006000000446973742F44657465633A202575202E
:1006100020202020200054656D706F3A2025752021
:1006200020202020202020200053656E68613A2081
:10063000257520202020202020200056616C6F721C
:100640003A20257520636D20202020200044697306
:10065000743A20257520636D202020202000556DE0
:100660002076616C6F722061746520323530000035
:100670000450800B0D6E045004240F6E03AE43EF44
:1006800003F045EF03F046EF03F00F800F50D8B4AE
:100690004CEF03F04EEF03F062EF03F00F28D8A405
:1006A00054EF03F056EF03F05EEF03F0000E016E1F
:1006B000000E026E000E036E000E046E038E046ABE
:1006C0006AEF03F0000E016E000E026E000E036E64
:1006D000000E046E0850800B0E6E0D500E18D8B42C
:1006E00074EF03F076EF03F077EF03F00D8C085012
:1006F00008240E6E07AE7FEF03F081EF03F082EF68
:1007000003F00E800E50D8B488EF03F08AEF03F0A8
:100710009EEF03F00E28D8A490EF03F092EF03F0C1
:100720009AEF03F0000E056E000E066E000E076EC7
:10073000000E086E078E086AA6EF03F0000E056E25
:10074000000E066E000E076E000E086E0F500E5C57
:10075000D8B0ADEF03F0AFEF03F0D6EF03F00DAC80
:10076000B4EF03F0B6EF03F0B8EF03F0800E0D1A0C
:100770000FC010F00EC00FF010C00EF001C010F04E
:1007800005C001F010C005F002C010F006C002F074
:1007900010C006F003C010F007C003F010C007F04F
:1007A00004C010F008C004F010C008F0106A0F5028
:1007B0000EC009F00A6A095E000E0A5A0ABEEAEF84
:1007C00003F00A5009E11A0E095CD8A0EAEF03F021
:1007D000ECEF03F023EF04F00150021003100410BB
:1007E000D8A4F5EF03F0F8EF03F0010EF9EF03F0F2
:1007F000000E106E000E016E000E026E000E036EF3
:10080000000E046E0EC00FF02CEF04F010A00BEFE2
:1008100004F00DEF04F013EF04F0D890103001094C
:10082000106E15EF04F0D890103201A01AEF04F00A
:100830001CEF04F01DEF04F0108E04340432033278
:10084000023201320F2A0E500F5CD8A02AEF04F0BA
:100850002CEF04F006EF04F00DBC31EF04F033EFA1
:1008600004F073EF04F00F50D8A439EF04F03BEF1D
:1008700004F045EF04F0000E016E000E026E000E53
:10088000036E000E046E92EF05F00550012606502F
:100890000222075003220850042204A052EF04F061
:1008A00054EF04F000EF05F010A059EF04F05BEFF7
:1008B00004F061EF04F0D89010300109106E63EF7E
:1008C00004F0D890103201A068EF04F06AEF04F051
:1008D0006BEF04F0108E0434043203320232013222
:1008E0000F2A00EF05F00550015C06500258075032
:1008F00003580450800A096E0850800A0958D8B07D
:1009000084EF04F086EF04F0B1EF04F00150055CD1
:10091000096E025006580A6E035007580B6E0450B9
:1009200008580C6EFF0E0924016EFF0E0A20026E9D
:10093000FF0E0B20036EFF0E0C20046E800E0D1AAE
:10094000106C1050D8A4A7EF04F0A9EF04F0B9EF91
:1009500004F0010E0126000E022203220422B9EF48
:1009600004F00550015E0650025A0750035A085021
:10097000045A0150021003100410D8A4C2EF04F06E
:10098000C4EF04F0F9EF04F01050D8A4CAEF04F05B
:10099000CCEF04F0F9EF04F0000E016E000E026ED1
:1009A000000E036E000E046E92EF05F0D890013633
:1009B00002360336043610AEE0EF04F0E2EF04F046
:1009C000E3EF04F0018010A0E8EF04F0EAEF04F098
:1009D000EEEF04F0D8801036F0EF04F0D890103627
:1009E0000F50D8B4F6EF04F0F8EF04F0F9EF04F08C
:1009F0000F0603AEFEEF04F000EF05F0D6EF04F0B3
:100A00000E6A10AE06EF05F008EF05F020EF05F0D6
:100A100010C009F07F0E0916D8B411EF05F013EFDE
:100A200005F017EF05F0010E0E6E20EF05F001A0A6
:100A30001CEF05F01EEF05F020EF05F013EF05F0B9
:100A40000E50D8B426EF05F028EF05F053EF05F06F
:100A5000010E0126000E02220322042204A033EF1D
:100A600005F035EF05F053EF05F001C009F002C0C5
:100A70000AF003C00BF004C00CF00C340C320B3243
:100A80000A32093209C001F00AC002F00BC003F0BB
:100A90000CC004F00F28D8B450EF05F052EF05F069
:100AA00053EF05F00F2A0F28D8B459EF05F05BEF8C
:100AB00005F063EF05F00F50D8A461EF05F063EF88
:100AC00005F074EF05F0000E016E000E026E000ED0
:100AD000036E000E046E0F50D8A471EF05F073EF93
:100AE00005F074EF05F00D6A0FA079EF05F07BEFCC
:100AF00005F07EEF05F0038E7FEF05F0039ED890A2
:100B00000F30046E0DAE87EF05F089EF05F08AEF28
:100B100005F0048E01C001F002C002F003C003F032
:100B200004C004F012001C50800B256E1C501C24C5
:100B30002B6E1BAE9EEF05F0A0EF05F0A1EF05F0C8
:100B40002B802B50D8B4A7EF05F0A9EF05F0BCEF30
:100B500005F02B28D8A4AFEF05F0B1EF05F0B9EF01
:100B600005F0000E196E000E1A6E000E1B6E000EC0
:100B70001C6E1B8EC4EF05F0000E196E000E1A6E6F
:100B8000000E1B6E000E1C6E2050800B251A20508C
:100B900020242A6E1FAECFEF05F0D1EF05F0D2EF83
:100BA00005F02A802A50D8B4D8EF05F0DAEF05F026
:100BB000EDEF05F02A28D8A4E0EF05F0E2EF05F00C
:100BC000EAEF05F0000E1D6E000E1E6E000E1F6E89
:100BD000000E206E1F8EF5EF05F0000E1D6E000E4C
:100BE0001E6E000E1F6E000E206E2A50D8B4FBEF52
:100BF00005F0FDEF05F005EF06F02B50D8A403EF4C
:100C000006F005EF06F00FEF06F0000E196E000E6D
:100C10001A6E000E1B6E000E1C6EA5EF07F01F5023
:100C20001902F3CF30F0F4CF31F03050266E276A3E
:100C3000286A296A31502C6E2D6A2E6A2F6A1E503E
:100C40001A02F3CF30F0F4CF31F030502626000EE8
:100C500027222822292231502C26000E2D222E2236
:100C60002F221D501B02F3CF30F0F4CF31F0305063
:100C70002626000E27222822292231502C26000E5B
:100C80002D222E222F2228C029F027C028F026C08E
:100C900027F0266A1D501A02F3CF30F0F4CF31F05E
:100CA0003050262631502722000E2822000E2922FD
:100CB0001E501902F3CF30F0F4CF31F03050262619
:100CC00031502722000E2822000E292228C029F0A8
:100CD00027C028F026C027F0266A1D501902F3CF3E
:100CE00030F0F4CF31F03050262631502722000E5C
:100CF0002822000E29221F501A02F3CF30F0F4CF21
:100D000031F030502C2631502D22000E2E22000EB4
:100D10002F221E501B02F3CF30F0F4CF31F03050B1
:100D20002C2631502D22000E2E22000E2F221F5075
:100D30001B02F3CF30F0F4CF31F03050216E315040
:100D4000226E236A246A23C024F022C023F021C02B
:100D500022F0216A21502C2622502D2223502E22AF
:100D600024502F2226C021F027C022F028C023F0D3
:100D700029C024F0190EC2EF06F0D8902432233295
:100D800022322132E82EBDEF06F021502C262250CF
:100D90002D2223502E2224502F2228C029F027C094
:100DA00028F026C027F0266A2A502BC021F0226A9C
:100DB0002126000E2222820E2124306EFF0E2220D8
:100DC000316EF8EF06F0D8902C362D362E362F36B1
:100DD00029AEEDEF06F0EFEF06F0F0EF06F02C8015
:100DE000D89026362736283629363006D8A0310640
:100DF0002EAEFDEF06F0FFEF06F0E3EF06F02A6AF5
:100E000029AE05EF07F007EF07F02BEF07F0FF0E15
:100E10002614216EFF0E2714226EFF0E2814236E57
:100E20007F0E2914246E2150221023102410D8B4D0
:100E30001CEF07F01EEF07F022EF07F0010E2A6EFD
:100E40002BEF07F02CA027EF07F029EF07F02BEF8F
:100E500007F01EEF07F02A50D8B431EF07F033EF58
:100E600007F057EF07F0010E2C26000E2D222E2240
:100E70002F222FA03EEF07F040EF07F057EF07F0CB
:100E80002CC021F02DC022F02EC023F02FC024F062
:100E90002434243223322232213221C02CF022C0C9
:100EA0002DF023C02EF024C02FF0304A312A31BE5D
:100EB00062EF07F0315008E13028D8A062EF07F068
:100EC00064EF07F06EEF07F0000E2C6E000E2D6E33
:100ED000800E2E6E7F0E2F6E9BEF07F031BE7BEFE4
:100EE00007F0315006E13004D8B079EF07F07BEF1E
:100EF00007F086EF07F0000E2C6E000E2D6E000E30
:100F00002E6E000E2F6E256A9BEF07F030C02BF07F
:100F1000FF0E2C16FF0E2D167F0E2E16000E2F160E
:100F20002BA095EF07F097EF07F098EF07F02E8EC4
:100F3000D8902B302F6E25502F122CC019F02DC0B9
:100F40001AF02EC01BF02FC01CF0120003680468BA
:100F50008A908A828A848A8681BEB1EF07F0B3EFD5
:100F600007F0BEEF07F0000E046E010E036E81AEB7
:100F7000BCEF07F0BEEF07F0B7EF07F081BAC3EFA1
:100F800007F0C5EF07F0D0EF07F0000E046E020E79
:100F9000036E81AACEEF07F0D0EF07F0C9EF07F09C
:100FA00081BCD5EF07F0D7EF07F0E2EF07F0000EB6
:100FB000046E030E036E81ACE0EF07F0E2EF07F082
:100FC000DBEF07F081B8E7EF07F0E9EF07F0F4EFA8
:100FD00007F0000E046E0C0E036E81A8F2EF07F00E
:100FE000F4EF07F0EDEF07F08A808A928A848A8610
:100FF00081BEFDEF07F0FFEF07F00AEF08F0000EEB
:10100000046E040E036E81AE08EF08F00AEF08F0DC
:1010100003EF08F081BA0FEF08F011EF08F01CEFB2
:1010200008F0000E046E050E036E81AA1AEF08F098
:101030001CEF08F015EF08F081BC21EF08F023EF5A
:1010400008F02EEF08F0000E046E060E036E81AC61
:101050002CEF08F02EEF08F027EF08F081B833EFFF
:1010600008F035EF08F040EF08F0000E046E0D0EAA
:10107000036E81A83EEF08F040EF08F039EF08F06A
:101080008A808A828A948A8681BE49EF08F04BEF73
:1010900008F056EF08F0000E046E070E036E81AEE6
:1010A00054EF08F056EF08F04FEF08F081BA5BEF0D
:1010B00008F05DEF08F068EF08F0000E046E080E0F
:1010C000036E81AA66EF08F068EF08F061EF08F0A0
:1010D00081BC6DEF08F06FEF08F07AEF08F0000EBA
:1010E000046E090E036E81AC78EF08F07AEF08F019
:1010F00073EF08F081B87FEF08F081EF08F08CEF14
:1011000008F0000E046E0E0E036E81A88AEF08F040
:101110008CEF08F085EF08F08A808A828A848A96AC
:1011200081BE95EF08F097EF08F0A2EF08F0000EEF
:10113000046E0A0E036E81AEA0EF08F0A2EF08F075
:101140009BEF08F081BAA7EF08F0A9EF08F0B4EF21
:1011500008F0000E046E000E036E81AAB2EF08F0D4
:10116000B4EF08F0ADEF08F081BCB9EF08F0BBEFC9
:1011700008F0C6EF08F0000E046E0B0E036E81AC93
:10118000C4EF08F0C6EF08F0BFEF08F081B8CBEF6E
:1011900008F0CDEF08F0D8EF08F0000E046E0F0E47
:1011A000036E81A8D6EF08F0D8EF08F0D1EF08F071
:1011B00003C001F004C002F01200166E1650D8B43D
:1011C000E4EF08F0E6EF08F008EF09F011BEEDEFEC
:1011D00008F0EBEF08F008EF09F00EC012F00FC0B6
:1011E00013F010C014F011C015F0121E131E141EBF
:1011F000151E122A000E13221422152212C018F0F6
:1012000013C019F014C01AF015C01BF010EF09F04C
:101210000EC018F00FC019F010C01AF011C01BF06A
:101220000E500F1010101110D8A419EF09F01BEF79
:1012300009F025EF09F0000E0E6E000E0F6E000E85
:10124000106E000E116EB6EF09F0960E176E2FEFAE
:1012500009F0172AD8901B321A3219321832000EB0
:101260001814126E000E1914136E000E1A14146E58
:10127000FE0E1B14156E1250131014101510D8A466
:1012800044EF09F046EF09F029EF09F054EF09F0B7
:10129000172A010E1826000E19221A221B22D89096
:1012A0001B321A3219321832000E1814126E000E48
:1012B0001914136E000E1A14146EFF0E1B14156E03
:1012C0001250131014101510D8A469EF09F06BEF29
:1012D00009F048EF09F073EF09F01706D8901836B7
:1012E00019361A361B361ABE78EF09F07AEF09F074
:1012F00082EF09F0020E176080EF09F082EF09F02B
:101300006DEF09F017B087EF09F089EF09F08AEF68
:1013100009F01A9ED890173217C012F0136A146A97
:10132000156A12C015F0146A136A126A1250181264
:101330001350191214501A1215501B121650D8B40B
:10134000A4EF09F0A6EF09F0AEEF09F011BEADEF82
:1013500009F0ABEF09F0AEEF09F01B8E18C00EF0EC
:1013600019C00FF01AC010F01BC011F012006CEF82
:101370000AF0A6EC07F001C079F002C07AF0010E85
:10138000096E020E82EC0FF05E0E086E0850D8A4B3
:10139000060E096ED0EC0EF07ABED1EF09F0D3EF55
:1013A00009F00CEF0AF07ABEE1EF09F07A5007E19C
:1013B0000A0E795CD8B0DFEF09F0E1EF09F00CEF2D
:1013C0000AF074BEEFEF09F0745007E1030E735C8E
:1013D000D8B0EDEF09F0EFEF09F00CEF0AF00A0ECC
:1013E0007702F3CF5FF0F4CF60F07802F35060261D
:1013F00079505F24776E7A506020786E734A742A31
:10140000030E606E080E5F6E770EE82EFED75F2E1D
:10141000FCD7602EFAD70000B00E176E3B0E186E88
:1014200077C019F078C01AF09DEC0FF0010E096E2C
:10143000010E82EC0FF0B00E086E096AD0EC0EF0CF
:10144000E70E771807E1030E7818D8A42AEF0AF000
:101450002CEF0AF05AEF0AF0000E786E000E776E4D
:10146000000E746E000E736E000E6E6E1E0E6D6EAC
:10147000000E706E010E6F6E000E286E000E276E4D
:10148000000E2A6E1E0E296E000E2C6E010E2B6EA3
:1014900073C02DF074C02EF079C02FF07AC030F0F8
:1014A00077C031F078C032F076EC0AF0000E766E3C
:1014B000000E756E0B0E79187A10D8A462EF0AF040
:1014C00064EF0AF06CEF0AF0000E766E000E756E97
:1014D00077C07BF078C07CF075507610D8A473EF9D
:1014E0000AF075EF0AF0B9EF09F01200030E5E6E14
:1014F000840E5D6E274A282A1E0E2B02F3CF33F08E
:10150000F4CF34F02C02F35034262750331807E17F
:1015100028503418D8A48FEF0AF091EF0AF096EF14
:101520000AF02B4A2C2A2906D8A02A06350E176E57
:10153000160E186E29C019F02AC01AF09DEC0FF093
:10154000010E096E010E82EC0FF0350E086E096A6D
:10155000D0EC0EF0A6EC07F001C02FF002C030F086
:1015600030BEB5EF0AF0B7EF0AF0E4EF0AF030BE94
:10157000C5EF0AF0305007E10A0E2F5CD8B0C3EF78
:101580000AF0C5EF0AF0E4EF0AF02EBED3EF0AF03E
:101590002E5007E1030E2D5CD8B0D1EF0AF0D3EF47
:1015A0000AF0E4EF0AF00A0E3102F3CF33F0F4CF81
:1015B00034F03202F35034262F503324316E305041
:1015C0003420326E2D4A2E2A490E176E290E186EBF
:1015D00031C019F032C01AF09DEC0FF0010E096E07
:1015E000020E82EC0FF0490E086E096AD0EC0EF084
:1015F000030E2D182E10D8A400EF0BF002EF0BF005
:1016000020EF0BF0920E311807E1020E3218D8A429
:101610000CEF0BF00EEF0BF018EF0BF0000E5E6E00
:10162000000E5D6E000E2E6E000E2D6E20EF0BF084
:10163000000E326E000E316E000E2E6E000E2D6EFC
:101640005D06D8A05E065EBE30EF0BF05E5006E190
:101650005D04D8B02EEF0BF030EF0BF07AEF0AF00C
:1016600012000A50D96EDA6ADFCFF6FF060EF76E67
:101670000800F550250AD8A440EF0BF042EF0BF01C
:10168000D4EF0BF00A50D96EDA6ADF2A000E6A6EC8
:10169000000E696E69C07DF06B686C680A50D96E87
:1016A000DA6ADF50116E11C0F6FF060EF76E080001
:1016B000F550750AD8A45FEF0BF061EF0BF0CEEF99
:1016C0000BF00B50D96EDA6A020EDF26DF5CD96EA2
:1016D000DA6ADECF0DF0DECF0EF00A50D96EDA6A8C
:1016E0001128DF6EC2EF0BF0200E126E12061250A0
:1016F000800FD96EDA6A0DC001F00EC002F0000E44
:10170000046E0A0E036E6EEC0EF00150300FDF6EA9
:101710000DC001F00EC002F0000E046E0A0E036E42
:1017200034EC0EF001C00DF002C00EF00D500E10A2
:10173000D8B49DEF0BF09FEF0BF0B7EF0BF012500A
:10174000D8A4A5EF0BF0A7EF0BF076EF0BF0B7EFF7
:101750000BF01250800FD96EDA6ADF500C6E0C500D
:10176000016E026A09C003F08DEC0DF0122A200E02
:101770001218D8A4BEEF0BF0C0EF0BF0A9EF0BF0DE
:10178000E5EF0BF011C0F6FF060EF76E0800F550FE
:10179000750AD8B474EF0BF0CEEF0BF00A50D96E87
:1017A000DA6ADF2AE5EF0BF00A50D96EDA6ADFCF8A
:1017B000F6FF060EF76E0800F550016E026A09C0CA
:1017C00003F08DEC0DF0CEEF0BF01200000ECF6E9B
:1017D000000ECE6E9E948B8E060EE82EFED700D0A5
:1017E0008B9E9EA4F6EF0BF0F8EF0BF0F1EF0BF0F1
:1017F000BECF0EF0BFCF0FF0106A116A000EDDEC05
:1018000008F00EC040F00FC041F010C042F011C00F
:1018100043F09E94040EBD6E9EA411EF0CF013EFE6
:101820000CF00CEF0CF0BECF0EF0BFCF0FF0106A33
:10183000116A000EDDEC08F00EC044F00FC045F058
:1018400010C046F011C047F09E94050EBD6E000E0C
:101850001D6E000E1E6E000E1F6E3F0E206E40C0ED
:1018600015F041C016F042C017F043C018F044C054
:1018700011F045C012F046C013F047C014F024EC3C
:101880000FF011C019F012C01AF013C01BF014C0F1
:101890001CF093EC05F019C032F01AC033F01BC0F5
:1018A00034F01CC035F00AEC0DF032C048F033C003
:1018B00049F034C04AF035C04BF03A0E056E000EC8
:1018C000066E000E076E000E086E48C001F049C09B
:1018D00002F04AC003F04BC004F0E2EC0DF001C08E
:1018E0000EF002C00FF003C010F004C011F0000EA3
:1018F000DDEC08F00EC03CF00FC03DF010C03EF033
:1019000011C03FF0120027EC10F0A0EC0EF017EC25
:1019100010F00F0EC16EF00E936E94920F0E8A6E41
:10192000F19EE6EC0BF03CC063F03DC064F03EC0BD
:1019300065F03FC066F063C032F064C033F065C04C
:1019400034F066C035F00AEC0DF032C067F033C0F9
:1019500068F0A6EC07F001C079F002C07AF00A0E38
:1019600079187A10D8A4B7EF0CF0B9EF0CF0C8EFE3
:101970000CF0000E766E010E756E000E786E000E85
:10198000776E000E746E000E736E8292B7EC09F0E3
:1019900067C001F068C002F07BC003F07CC004F0B7
:1019A000CDEC0FF0030E626E080E616E770EE82E1E
:1019B000FED7612EFCD7622EFAD70000B00E176E4C
:1019C0004D0E186E67C019F068C01AF09DEC0FF04C
:1019D000010E096E010E82EC0FF0B00E086E096A5E
:1019E000D0EC0EF0A00E176E010E186E7BC019F031
:1019F0007CC01AF09DEC0FF0010E096E020E82EC15
:101A00000FF0A00E086E096AD0EC0EF091EF0CF00A
:101A1000FEEF3FF0343435343B6E3B50D8A413EF27
:101A20000DF015EF0DF01FEF0DF0000E326E000EF1
:101A3000336E000E346E000E356E8CEF0DF032C03A
:101A400036F033C037F034C038F035C039F0200EEE
:101A50002FEF0DF0D8903932383237323632E82E47
:101A60002AEF0DF036503A6E348EFF0E3216FF0E0E
:101A70003316FF0E3416000E3516960E3B5E3BBE37
:101A800046EF0DF044EF0DF05CEF0DF03B50800A97
:101A9000970FD8B04EEF0DF050EF0DF052EF0DF064
:101AA00015EF0DF0D89035323432333232323B3EBE
:101AB00052EF0DF074EF0DF01F0E3B6462EF0DF06E
:101AC00064EF0DF06CEF0DF015EF0DF0D89032369D
:101AD0003336343635363B063B50D8A472EF0DF022
:101AE00074EF0DF066EF0DF03A50D8B47AEF0DF0C8
:101AF0007CEF0DF084EF0DF0351E341E331E326C7A
:101B0000000E33223422352232C032F033C033F09B
:101B100034C034F035C035F012000350D8B493EF20
:101B20000DF095EF0DF09DEF0DF00350D8A49BEF55
:101B30000DF09DEF0DF0A2EF0DF0015042EC10F012
:101B4000E1EF0DF00350D96EDA6A090ED926DE50A6
:101B5000DE10D8B4AEEF0DF0B0EF0DF0C9EF0DF020
:101B60000350D96EDA6A090ED9260350E16EE26A93
:101B7000020EE126DE50E65CE650800A086EDE507A
:101B8000800A0858D8B0C7EF0DF0C9EF0DF0E1EFAB
:101B90000DF00350D96EDA6A020ED926DF50046EBA
:101BA0000350D96EDA6ADF500424D96EDA6A01C0B4
:101BB000DFFF0350D96EDA6A020ED926DE2A000E44
:101BC000DD221200000E096E000E0A6E000E0B6E72
:101BD000000E0C6E0550061007100810D8B4F3EF75
:101BE0000DF0F5EF0DF02BEF0EF0010E0D6EFFEF87
:101BF0000DF0D89005360636073608360D2A08AEA1
:101C000004EF0EF006EF0EF0F9EF0DF0D890093664
:101C10000A360B360C360550015C06500258075048
:101C2000035808500458D8A018EF0EF01AEF0EF021
:101C300023EF0EF00550015E0650025A0750035A7A
:101C40000850045A0980D89008320732063205320B
:101C50000D2E06EF0EF009C001F00AC002F00BC015
:101C600003F00CC004F01200000E066E000E056EAC
:101C700003500410D8B43FEF0EF041EF0EF069EFBF
:101C80000EF0010E076E49EF0EF0D89003360436C1
:101C9000072A04AE4EEF0EF050EF0EF045EF0EF0B7
:101CA000D890053606360350015C04500258D8A07F
:101CB0005CEF0EF05EEF0EF063EF0EF00350015E8E
:101CC0000450025A0580D89004320332072E50EF98
:101CD0000EF005C001F006C002F01200035004101F
:101CE000D8B475EF0EF077EF0EF09BEF0EF0010E0B
:101CF000056E7FEF0EF0D89003360436052A04AE49
:101D000084EF0EF086EF0EF07BEF0EF00350015CD7
:101D100004500258D8A08FEF0EF091EF0EF095EF1F
:101D20000EF00350015E0450025AD8900432033280
:101D3000052E86EF0EF001C001F002C002F0120085
:101D4000340E096EF20EE82EFED7092EFCD7330EA4
:101D5000FFEC0EF00D0E096EFC0EE82EFED7092EDC
:101D6000FCD7320EFFEC0EF00D0E096EFC0EE82EC5
:101D7000FED7092EFCD7280EFFEC0EF00C0EFFEC60
:101D80000EF0060EFFEC0EF0010EFFEC0EF0060E4C
:101D9000096E300EE82EFED7092EFCD700D01200B7
:101DA000E6EF0EF008C0F6FF09C0F7FFF86A050E6F
:101DB000F76403D00800F55005D0F6CFE1FFF7CF68
:101DC000E2FFE750E1EC0FF0084A092A08C0F6FFED
:101DD00009C0F7FFF86A050EF76403D00800F55054
:101DE00005D0F6CFE1FFF7CFE2FFE7500009D8A416
:101DF000FCEF0EF0FEEF0EF0D2EF0EF01200086EC8
:101E0000000E046E0850F00B66EC0FF0000E046E2E
:101E10000838F00BF00B66EC0FF00804D8A413EFB1
:101E20000FF015EF0FF01FEF0FF0060E076E300EDC
:101E3000E82EFED7072EFCD700D023EF0FF0210E9F
:101E4000E82EFED700001200000E151A000E161A1A
:101E5000000E171A800E181A11C001F012C002F0FD
:101E600013C003F014C004F015C005F016C006F04E
:101E700017C007F018C008F038EC03F001C011F0EB
:101E800002C012F003C013F004C014F0120014C01A
:101E900016F053EF0FF013C009F0160E0A6E15C0BE
:101EA0000BF031EC0BF016C0F6FF060EF76E0800D3
:101EB000F5500009D8A45FEF0FF061EF0FF04BEF82
:101EC0000FF0000E146E000E136E1200056E05501A
:101ED000F00B0809066E0450D8B471EF0FF073EFE1
:101EE0000FF074EF0FF0068039EC10F04E0EB7ECE7
:101EF0000FF00650B7EC0FF00650F4EC0FF030EC9A
:101F000010F012000A6E0A04D8B489EF0FF08BEFBC
:101F10000FF091EF0FF0000E0C6EC00E0B6E95EFF0
:101F20000FF0000E0C6E800E0B6E0BC00DF009044E
:101F30000D260D50FFEC0EF01200190E1B6E17C08F
:101F40001CF0000E1F6E000E1E6E000E266E000EA0
:101F5000256E1C0E136E18C014F01B0E156E47EC88
:101F60000FF017501E24D96EDA6ADF6A1200026E73
:101F700002C0C9FFC7B0BFEF0FF0C1EF0FF0BAEF5B
:101F80000FF0C5CF01F01F0E0116D8A4CAEF0FF055
:101F9000CCEF0FF0C1EF0FF012000350015C0250C4
:101FA000800A056E0450800A0558D8B0DAEF0FF0A9
:101FB000DCEF0FF0DFEF0FF08282E0EF0FF08292A4
:101FC0001200076E010E046E0750F00B66EC0FF066
:101FD000010E046E0738F00BF00B66EC0FF0210ECB
:101FE000E82EFED700001200036E03500409B7EC80
:101FF0000FF0030EE82EFED700000350FB0BB7ECEA
:102000000FF0210EE82EFED70000120000EE80F047
:10201000400EEE6AE806FDE100EE69F0150EEE6A8C
:10202000E806FDE1000EF86E000183EF0CF0949ECF
:102030009484010ECD6E050EBD6E000ECF6E000EA7
:10204000CE6E000EBF6E000EBE6E9E941200280E65
:10205000C66EC56A130EC86EC76A9486948812004D
:10206000C584C5B436EF10F038EF10F031EF10F042
:102070001200C580C5B03FEF10F041EF10F03AEF0D
:0620800010F01200120036
:047FFC0006EF10F08C
:020000040020DA
:08000000FFFFFFFFFFFFFFFF00
:020000040030CA
:0E000000FF021A1EFF8181FF0FC00FE00F40AC
:00000001FF
