:020000040000FA
:04000000FEEF3FF0E0
:1006000000446973742F44657465633A202575202E
:1006100020202020200054656D706F3A2025752021
:1006200020202020202020200053656E68613A2081
:10063000257520202020202020200056616C6F721C
:100640003A20257520636D20202020200044697306
:10065000743A20257520636D202020202000556DE0
:100660002076616C6F722061746520323530000035
:100670001250800B1B6E12501224216E11AE43EFEC
:1006800003F045EF03F046EF03F021802150D8B48A
:100690004CEF03F04EEF03F061EF03F02128D8A4F4
:1006A00054EF03F056EF03F05EEF03F0000E0F6E11
:1006B000000E106E000E116E000E126E118E69EF9C
:1006C00003F0000E0F6E000E106E000E116E000E85
:1006D000126E1650800B1B1A16501624206E15AE83
:1006E00074EF03F076EF03F077EF03F020802050F3
:1006F000D8B47DEF03F07FEF03F092EF03F02028F2
:10070000D8A485EF03F087EF03F08FEF03F0000E1E
:10071000136E000E146E000E156E000E166E158E02
:100720009AEF03F0000E136E000E146E000E156E9D
:10073000000E166E2050D8B4A0EF03F0A2EF03F025
:10074000AAEF03F02150D8A4A8EF03F0AAEF03F01A
:10075000B4EF03F0000E0F6E000E106E000E116E5F
:10076000000E126E4AEF05F015500F02F3CF26F07F
:10077000F4CF27F026501C6E1D6A1E6A1F6A275090
:10078000226E236A246A256A14501002F3CF26F0E1
:10079000F4CF27F026501C26000E1D221E221F22F9
:1007A00027502226000E2322242225221350110234
:1007B000F3CF26F0F4CF27F026501C26000E1D2282
:1007C0001E221F2227502226000E23222422252209
:1007D0001EC01FF01DC01EF01CC01DF01C6A13506F
:1007E0001002F3CF26F0F4CF27F026501C26275016
:1007F0001D22000E1E22000E1F2214500F02F3CFE6
:1008000026F0F4CF27F026501C2627501D22000E7C
:100810001E22000E1F221EC01FF01DC01EF01CC095
:100820001DF01C6A13500F02F3CF26F0F4CF27F00F
:1008300026501C2627501D22000E1E22000E1F22AD
:1008400015501002F3CF26F0F4CF27F026502226C1
:1008500027502322000E2422000E252214501102BC
:10086000F3CF26F0F4CF27F026502226275023225C
:10087000000E2422000E252215501102F3CF26F07F
:10088000F4CF27F02650176E2750186E196A1A6A8F
:1008900019C01AF018C019F017C018F0176A1750CD
:1008A000222618502322195024221A5025221CC017
:1008B00017F01DC018F01EC019F01FC01AF0190E55
:1008C00067EF04F0D8901A32193218321732E82E36
:1008D00062EF04F0175022261850232219502422C8
:1008E0001A5025221EC01FF01DC01EF01CC01DF096
:1008F0001C6A205021C017F0186A1726000E182213
:10090000820E1724266EFF0E1820276E9DEF04F02E
:10091000D89022362336243625361FAE92EF04F0C7
:1009200094EF04F095EF04F02280D8901C361D3629
:100930001E361F362606D8A0270624AEA2EF04F0E6
:10094000A4EF04F088EF04F0206A1FAEAAEF04F0D1
:10095000ACEF04F0D0EF04F0FF0E1C14176EFF0E86
:100960001D14186EFF0E1E14196E7F0E1F141A6EC2
:100970001750181019101A10D8B4C1EF04F0C3EFB3
:1009800004F0C7EF04F0010E206ED0EF04F022A0B7
:10099000CCEF04F0CEEF04F0D0EF04F0C3EF04F09E
:1009A0002050D8B4D6EF04F0D8EF04F0FCEF04F0F8
:1009B000010E2226000E23222422252225A0E3EF69
:1009C00004F0E5EF04F0FCEF04F022C017F023C0C0
:1009D00018F024C019F025C01AF01A341A3219324E
:1009E0001832173217C022F018C023F019C024F0B3
:1009F0001AC025F0264A272A27BE07EF05F0275000
:100A000008E12628D8A007EF05F009EF05F013EF5D
:100A100005F0000E226E000E236E800E246E7F0EF7
:100A2000256E40EF05F027BE20EF05F0275006E1C8
:100A30002604D8B01EEF05F020EF05F02BEF05F0EF
:100A4000000E226E000E236E000E246E000E256E28
:100A50001B6A40EF05F026C021F0FF0E2216FF0EA4
:100A600023167F0E2416000E251621A03AEF05F05E
:100A70003CEF05F03DEF05F0248ED8902130256E37
:100A80001B50251222C00FF023C010F024C011F01B
:100A900025C012F01200036804688A908A828A8452
:100AA0008A8681BE56EF05F058EF05F063EF05F03A
:100AB000000E046E010E036E81AE61EF05F063EF70
:100AC00005F05CEF05F081BA68EF05F06AEF05F01C
:100AD00075EF05F0000E046E020E036E81AA73EF2F
:100AE00005F075EF05F06EEF05F081BC7AEF05F0CB
:100AF0007CEF05F087EF05F0000E046E030E036E29
:100B000081AC85EF05F087EF05F080EF05F081B847
:100B10008CEF05F08EEF05F099EF05F0000E046EF6
:100B20000C0E036E81A897EF05F099EF05F092EF98
:100B300005F08A808A928A848A8681BEA2EF05F0B7
:100B4000A4EF05F0AFEF05F0000E046E040E036E87
:100B500081AEADEF05F0AFEF05F0A8EF05F081BA7B
:100B6000B4EF05F0B6EF05F0C1EF05F0000E046E2E
:100B7000050E036E81AABFEF05F0C1EF05F0BAEFD5
:100B800005F081BCC6EF05F0C8EF05F0D3EF05F026
:100B9000000E046E060E036E81ACD1EF05F0D3EFAC
:100BA00005F0CCEF05F081B8D8EF05F0DAEF05F0ED
:100BB000E5EF05F0000E046E0D0E036E81A8E3EF65
:100BC00005F0E5EF05F0DEEF05F08A808A828A9471
:100BD0008A8681BEEEEF05F0F0EF05F0FBEF05F041
:100BE000000E046E070E036E81AEF9EF05F0FBEF09
:100BF00005F0F4EF05F081BA00EF06F002EF06F021
:100C00000DEF06F0000E046E080E036E81AA0BEFC6
:100C100006F00DEF06F006EF06F081BC12EF06F0CD
:100C200014EF06F01FEF06F0000E046E090E036EBF
:100C300081AC1DEF06F01FEF06F018EF06F081B84B
:100C400024EF06F026EF06F031EF06F0000E046EFA
:100C50000E0E036E81A82FEF06F031EF06F02AEF9B
:100C600006F08A808A828A848A9681BE3AEF06F0EC
:100C70003CEF06F047EF06F0000E046E0A0E036E1E
:100C800081AE45EF06F047EF06F040EF06F081BA7F
:100C90004CEF06F04EEF06F059EF06F0000E046E32
:100CA000000E036E81AA57EF06F059EF06F052EFDF
:100CB00006F081BC5EEF06F060EF06F06BEF06F029
:100CC000000E046E0B0E036E81AC69EF06F06BEF45
:100CD00006F064EF06F081B870EF06F072EF06F0F0
:100CE0007DEF06F0000E046E0F0E036E81A87BEF01
:100CF00006F07DEF06F076EF06F003C001F004C0C9
:100D000002F01200096E0950D8B489EF06F08BEF9B
:100D100006F0ADEF06F004BE92EF06F090EF06F09D
:100D2000ADEF06F001C005F002C006F003C007F009
:100D300004C008F0051E061E071E081E052A000E28
:100D400006220722082205C00BF006C00CF007C0DF
:100D50000DF008C00EF0B5EF06F001C00BF002C0B8
:100D60000CF003C00DF004C00EF00150021003108F
:100D70000410D8A4BEEF06F0C0EF06F0CAEF06F0EC
:100D8000000E016E000E026E000E036E000E046E69
:100D90005BEF07F0960E0A6ED4EF06F00A2AD890A1
:100DA0000E320D320C320B32000E0B14056E000E9B
:100DB0000C14066E000E0D14076EFE0E0E14086E57
:100DC0000550061007100810D8A4E9EF06F0EBEF65
:100DD00006F0CEEF06F0F9EF06F00A2A010E0B2618
:100DE000000E0C220D220E22D8900E320D320C3243
:100DF0000B32000E0B14056E000E0C14066E000E66
:100E00000D14076EFF0E0E14086E05500610071025
:100E10000810D8A40EEF07F010EF07F0EDEF06F082
:100E200018EF07F00A06D8900B360C360D360E3642
:100E30000DBE1DEF07F01FEF07F027EF07F0020EC2
:100E40000A6025EF07F027EF07F012EF07F00AB06E
:100E50002CEF07F02EEF07F02FEF07F00D9ED89044
:100E60000A320AC005F0066A076A086A05C008F077
:100E7000076A066A056A05500B1206500C120750E5
:100E80000D1208500E120950D8B449EF07F04BEF7D
:100E900007F053EF07F004BE52EF07F050EF07F0F2
:100EA00053EF07F00E8E0BC001F00CC002F00DC026
:100EB00003F00EC004F01200000E3A6E000E396E00
:100EC000000E3C6E1E0E3B6E000E3E6E010E3D6E21
:100ED000000E406E000E3F6E000E466E000E456E18
:100EE000070E426E080E416E394A3A2A3C0E3D0208
:100EF000F3CF27F0F4CF28F03E02F35028263950E4
:100F0000271807E13A502818D8A489EF07F08BEF8B
:100F100007F090EF07F03D4A3E2A3B06D8A03C067A
:100F2000290E176E160E186E3BC019F03CC01AF051
:100F3000CFEC0CF0010E096E010EB4EC0CF0290E92
:100F4000086E096A25EC0CF04BEC05F001C043F08B
:100F500002C044F044BEAFEF07F0B1EF07F0DEEFA0
:100F600007F044BEBFEF07F0445007E10A0E435CB0
:100F7000D8B0BDEF07F0BFEF07F0DEEF07F040BEDF
:100F8000CDEF07F0405007E1030E3F5CD8B0CBEF48
:100F900007F0CDEF07F0DEEF07F00A0E4502F3CFC2
:100FA00027F0F4CF28F04602F35028264350272498
:100FB000456E44502820466E3F4A402A290E176E3F
:100FC000290E186E45C019F046C01AF0CFEC0CF08F
:100FD000010E096E020EB4EC0CF0290E086E096ABF
:100FE00025EC0CF0030E3F184010D8A4FAEF07F0E0
:100FF000FCEF07F014EF08F06F0E45184610D8A468
:1010000004EF08F006EF08F010EF08F0000E426E53
:10101000000E416E000E406E000E3F6E14EF08F0A1
:10102000000E466E000E456E4106D8A0420642BE36
:1010300024EF08F0425006E14104D8B022EF08F056
:1010400024EF08F074EF07F012000A50D96EDA6A44
:10105000DFCFF6FF060EF76E0800F550250AD8A47C
:1010600034EF08F036EF08F0C8EF08F00A50D96EF8
:10107000DA6ADF2A000E4E6E000E4D6E4DC05BF038
:101080004F6850680A50D96EDA6ADF50116E11C08D
:10109000F6FF060EF76E0800F550750AD8A453EF58
:1010A00008F055EF08F0C2EF08F00B50D96EDA6A7D
:1010B000020EDF26DF5CD96EDA6ADECF0DF0DECFFE
:1010C0000EF00A50D96EDA6A1128DF6EB6EF08F01A
:1010D000200E126E12061250800FD96EDA6A0DC001
:1010E00001F00EC002F0000E046E0A0E036EC3EC97
:1010F0000BF00150300FDF6E0DC001F00EC002F09A
:10110000000E046E0A0E036E89EC0BF001C00DF0A8
:1011100002C00EF00D500E10D8B491EF08F093EF0E
:1011200008F0ABEF08F01250D8A499EF08F09BEF4D
:1011300008F06AEF08F0ABEF08F01250800FD96E9C
:10114000DA6ADF500C6E0C50016E026A09C003F0BF
:10115000E2EC0AF0122A200E1218D8A4B2EF08F01E
:10116000B4EF08F09DEF08F0D9EF08F011C0F6FFDA
:10117000060EF76E0800F550750AD8B468EF08F04F
:10118000C2EF08F00A50D96EDA6ADF2AD9EF08F008
:101190000A50D96EDA6ADFCFF6FF060EF76E080046
:1011A000F550016E026A09C003F0E2EC0AF0C2EFEA
:1011B00008F012006FEF09F04BEC05F001C057F09A
:1011C00002C058F0010E096E020EB4EC0CF05E0E77
:1011D000086E0850D8A4060E096E25EC0CF058BE17
:1011E000F4EF08F0F6EF08F02FEF09F058BE04EF27
:1011F00009F0585007E10A0E575CD8B002EF09F029
:1012000004EF09F02FEF09F052BE12EF09F052502F
:1012100007E1030E515CD8B010EF09F012EF09F0AE
:101220002FEF09F00A0E5502F3CF47F0F4CF48F044
:101230005602F350482657504724556E58504820C0
:10124000566E514A522A030E486E080E476E770EAC
:10125000E82EFED7472EFCD7482EFAD700006C0E9A
:10126000176E3B0E186E55C019F056C01AF0CFEC31
:101270000CF0010E096E010EB4EC0CF06C0E086E51
:10128000096A25EC0CF0E70E551807E1030E561815
:10129000D8A44DEF09F04FEF09F05DEF09F0000E13
:1012A000566E000E556E000E526E000E516E5CECC6
:1012B00007F0000E546E000E536E0B0E57185810A8
:1012C000D8A465EF09F067EF09F06FEF09F0000EA1
:1012D000546E000E536E55C059F056C05AF053501C
:1012E0005410D8A476EF09F078EF09F0DCEF08F09D
:1012F00012002A342B34316E3150D8A482EF09F019
:1013000084EF09F08EEF09F0000E286E000E296EB2
:10131000000E2A6E000E2B6EFBEF09F028C02CF099
:1013200029C02DF02AC02EF02BC02FF0200E9EEFEA
:1013300009F0D8902F322E322D322C32E82E99EF30
:1013400009F02C50306E2A8EFF0E2816FF0E29163B
:10135000FF0E2A16000E2B16960E315E31BEB5EF2B
:1013600009F0B3EF09F0CBEF09F03150800A970F85
:10137000D8B0BDEF09F0BFEF09F0C1EF09F084EF7D
:1013800009F0D8902B322A3229322832313EC1EF6F
:1013900009F0E3EF09F01F0E3164D1EF09F0D3EF4C
:1013A00009F0DBEF09F084EF09F0D89028362936F0
:1013B0002A362B3631063150D8A4E1EF09F0E3EF9D
:1013C00009F0D5EF09F03050D8B4E9EF09F0EBEFB0
:1013D00009F0F3EF09F02B1E2A1E291E286C000EBF
:1013E00029222A222B2228C028F029C029F02AC02D
:1013F0002AF02BC02BF0120059EC0DF0F5EC0BF09D
:1014000049EC0DF00F0EC16EF00E936E94920F0E1C
:101410008A6EF19E71EC0AF032C04BF033C04CF092
:101420004BEC05F001C057F002C058F00A0E5718F7
:101430005810D8A41EEF0AF020EF0AF02FEF0AF0A0
:10144000000E546E010E536E000E566E000E556E59
:10145000000E526E000E516E8292DAEC08F04BC014
:1014600001F04CC002F059C003F05AC004F0FFEC88
:101470000CF0030E4A6E080E496E770EE82EFED76A
:10148000492EFCD74A2EFAD700006C0E176E4D0E6F
:10149000186E4BC019F04CC01AF0CFEC0CF0010ED6
:1014A000096E010EB4EC0CF06C0E086E096A25ECA6
:1014B0000CF05C0E176E010E186E59C019F05AC070
:1014C0001AF0CFEC0CF0010E096E020EB4EC0CF029
:1014D0005C0E086E096A25EC0CF00AEF0AF0FEEFCC
:1014E0003FF0000ECF6E000ECE6E9E948B8E060ED9
:1014F000E82EFED700D08B9E9EA481EF0AF083EFEA
:101500000AF07CEF0AF0BECF3AF0BFCF3BF09E94DA
:10151000040EBD6E9EA48FEF0AF091EF0AF08AEFE1
:101520000AF0BECF3CF0BFCF3DF09E94050EBD6EDD
:10153000000E136E000E146E000E156E3F0E166E2A
:101540003A503C5C346E3B503D58356E34C001F02F
:1015500035C002F0036A046A000E82EC06F001C096
:101560000FF002C010F003C011F004C012F038EC0C
:1015700003F00FC028F010C029F011C02AF012C0EB
:101580002BF079EC09F028C036F029C037F02AC0DA
:1015900038F02BC039F036C001F037C002F038C047
:1015A00003F039C004F03A0E056E000E066E000E10
:1015B000076E000E086E37EC0BF001C032F002C06F
:1015C00033F012000350D8B4E8EF0AF0EAEF0AF063
:1015D000F2EF0AF00350D8A4F0EF0AF0F2EF0AF0AD
:1015E000F7EF0AF0015074EC0DF036EF0BF00350FA
:1015F000D96EDA6A090ED926DE50DE10D8B403EFB0
:101600000BF005EF0BF01EEF0BF00350D96EDA6A0A
:10161000090ED9260350E16EE26A020EE126DE5081
:10162000E65CE650800A086EDE50800A0858D8B0A2
:101630001CEF0BF01EEF0BF036EF0BF00350D96EE2
:10164000DA6A020ED926DF50046E0350D96EDA6AC8
:10165000DF500424D96EDA6A01C0DFFF0350D96E6F
:10166000DA6A020ED926DE2A000EDD221200000EF2
:10167000096E000E0A6E000E0B6E000E0C6E055009
:10168000061007100810D8B448EF0BF04AEF0BF023
:1016900080EF0BF0010E0D6E54EF0BF0D890053675
:1016A0000636073608360D2A08AE59EF0BF05BEF09
:1016B0000BF04EEF0BF0D89009360A360B360C368D
:1016C0000550015C06500258075003580850045852
:1016D000D8A06DEF0BF06FEF0BF078EF0BF005502B
:1016E000015E0650025A0750035A0850045A0980F6
:1016F000D89008320732063205320D2E5BEF0BF020
:1017000009C001F00AC002F00BC003F00CC004F0E5
:101710001200000E066E000E056E03500410D8B4C1
:1017200094EF0BF096EF0BF0BEEF0BF0010E076E8F
:101730009EEF0BF0D89003360436072A04AEA3EFD1
:101740000BF0A5EF0BF09AEF0BF0D89005360636AC
:101750000350015C04500258D8A0B1EF0BF0B3EF76
:101760000BF0B8EF0BF00350015E0450025A0580F5
:10177000D89004320332072EA5EF0BF005C001F01C
:1017800006C002F0120003500410D8B4CAEF0BF0E8
:10179000CCEF0BF0F0EF0BF0010E056ED4EF0BF079
:1017A000D89003360436052A04AED9EF0BF0DBEFF0
:1017B0000BF0D0EF0BF00350015C04500258D8A09E
:1017C000E4EF0BF0E6EF0BF0EAEF0BF00350015EF5
:1017D0000450025AD89004320332052EDBEF0BF08E
:1017E00001C001F002C002F01200340E096EF20EC8
:1017F000E82EFED7092EFCD7330E54EC0CF00D0E5C
:10180000096EFC0EE82EFED7092EFCD7320E54ECE2
:101810000CF00D0E096EFC0EE82EFED7092EFCD73B
:10182000280E54EC0CF00C0E54EC0CF0060E54EC9C
:101830000CF0010E54EC0CF0060E096E300EE82E82
:10184000FED7092EFCD700D012003BEF0CF008C0E9
:10185000F6FF09C0F7FFF86A050EF76403D0080029
:10186000F55005D0F6CFE1FFF7CFE2FFE75013ECDC
:101870000DF0084A092A08C0F6FF09C0F7FFF86A08
:10188000050EF76403D00800F55005D0F6CFE1FF50
:10189000F7CFE2FFE7500009D8A451EF0CF053EF67
:1018A0000CF027EF0CF01200086E000E046E0850CA
:1018B000F00B98EC0CF0000E046E0838F00BF00BF7
:1018C00098EC0CF00804D8A468EF0CF06AEF0CF068
:1018D00074EF0CF0060E076E300EE82EFED7072EC2
:1018E000FCD700D078EF0CF0210EE82EFED70000D8
:1018F000120014C016F085EF0CF013C009F0160E9C
:101900000A6E15C00BF025EC08F016C0F6FF060EA7
:10191000F76E0800F5500009D8A491EF0CF093EF92
:101920000CF07DEF0CF0000E146E000E136E120022
:10193000056E0550F00B0809066E0450D8B4A3EFED
:101940000CF0A5EF0CF0A6EF0CF006806BEC0DF0A0
:101950004E0EE9EC0CF00650E9EC0CF0065026ECCB
:101960000DF062EC0DF012000A6E0A04D8B4BBEF61
:101970000CF0BDEF0CF0C3EF0CF0000E0C6EC00EBF
:101980000B6EC7EF0CF0000E0C6E800E0B6E0BC0D2
:101990000DF009040D260D5054EC0CF01200190E38
:1019A0001B6E17C01CF0000E1F6E000E1E6E000E88
:1019B000266E000E256E1C0E136E18C014F01B0E42
:1019C000156E79EC0CF017501E24D96EDA6ADF6AB6
:1019D0001200026E02C0C9FFC7B0F1EF0CF0F3EFC6
:1019E0000CF0ECEF0CF0C5CF01F01F0E0116D8A4DF
:1019F000FCEF0CF0FEEF0CF0F3EF0CF012000350D4
:101A0000015C0250800A056E0450800A0558D8B067
:101A10000CEF0DF00EEF0DF011EF0DF0828212EFD2
:101A20000DF082921200076E010E046E0750F00B4B
:101A300098EC0CF0010E046E0738F00BF00B98ECEC
:101A40000CF0210EE82EFED700001200036E0350AA
:101A50000409E9EC0CF0030EE82EFED70000035059
:101A6000FB0BE9EC0CF0210EE82EFED70000120073
:101A700000EE80F0200EEE6AE806FDE100EE4DF08B
:101A80002F0EEE6AE806FDE1000EF86E0001FCEF95
:101A900009F0949E9484010ECD6E050EBD6E000E6D
:101AA000CF6E000ECE6E000EBF6E000EBE6E9E9408
:101AB0001200280EC66EC56A130EC86EC76A9486D9
:101AC00094881200C584C5B468EF0DF06AEF0DF07C
:101AD00063EF0DF01200C580C5B071EF0DF073EF2C
:0A1AE0000DF06CEF0DF01200120083
:047FFC0038EF0DF05D
:020000040020DA
:08000000FFFFFFFFFFFFFFFF00
:020000040030CA
:0E000000FF021A1EFF8181FF0FC00FE00F40AC
:00000001FF
